:020000020000FC
:0200000021C01D
:100040000C945800F89418EC22E00091B000036C76
:100050000093B0000091B10001600093B1000091E5
:10006000B300022F0093B30002EC04BD02E005BD13
:1000700008EC07BD00916E00026000936E003A9A92
:10008000399A579A509A06E008B900E40BB9789467
:100090004E99FECF000023952C3F40F43091B300E1
:1000A000322F3093B300000010C0F2CF21E00DC01A
:1000B0001A95113040F0121718F406E008B904C080
:1000C00000E008B901C018EC18950AE08CED0A951B
:0800D000F1F78A95E1F7DCCF9E
:00000001FF
