:020000020000FC
:0200000021C01D
:100040000C945100F89418EC22E00091B000036C7D
:100050000093B0000091B10001600093B1000091E5
:10006000B300022F0093B30002EC04BD02E005BD13
:1000700008EC07BD00916E00026000936E0006E080
:1000800008B900E00BB97894000023952C3F38F4B0
:100090000091B300022F0093B30000000FC021E0D5
:1000A000F3CF1A95113040F0121718F406E008B992
:1000B00004C000E008B901C018EC18950AE08FEC04
:0A00C0000A95F1F78A95E1F7DFCF0A
:00000001FF
