:020000020000FC
:040000000C9422003A
:100040000C946100F89400E11FEF0EBF1DBF18EC87
:1000500022E082E095E00091B000036C0093B000D4
:100060000091B10001600093B1000091B300022F34
:100070000093B30002EC04BD02E005BD08EC07BD2F
:1000800000916E00026000936E003A9A399A579A76
:10009000509A06E008B900E40BB978944E99FECF67
:1000A000000023952C3F48F43091B300322F309359
:1000B000B30000000E947000F1CF21E00E947000A8
:1000C000EDCF0F931A95113040F0121718F406E097
:1000D00008B904C000E008B901C018EC0F911895E8
:1000E0003F934F935F930F93382F492F50E1492F40
:1000F000382F09EF000000000A95E9F73A95C9F793
:100100004A95B1F75A9599F70F915F914F913F91A9
:1001100008954F935F93492F50E1492F000000004D
:10012000000000000000000000004A95B9F75A9551
:08013000A1F75F914F910895C2
:00000001FF
