:020000020000FC
:040000000C946601F5
:040040000C94D70144
:100060003F934F935F936F93322F412F50E1232F94
:10007000142F69EF000000006A95E9F71A95C9F797
:100080002A95B1F75A9599F76F915F914F913F91EA
:1000900008954F935F93412F50E1142F000000000B
:1000A000000000000000000000001A95B9F75A9502
:1000B000A1F75F914F9108950F932F931F93089A83
:1000C000099A0C9A0D9A0E9A0F9A109811981DE29F
:1000D00021E0C6DF119A149A159A16981798000015
:1000E0000000119815E021E0BBDF22E0119A11E039
:1000F000D0DF119814E1CDDF2A95C1F7119A149839
:1001000011E0C7DF11981AE0C4DF08E20AD006E068
:1001100008D00CE006D0109A2BD01F912F910F9190
:100120000895109802D0109A0895119A149815986D
:100130001698179807FD179A06FD169A05FD159A49
:1001400004FD149A0000119800000000119A149800
:1001500015981698179803FD179A02FD169A01FD37
:10016000159A00FD149A0000119815E092DF089589
:100170000F9301E0D6DF04EB8CDF0F9108950F930E
:100180001F9302E0CEDF14EB84DF1F910F910895DF
:100190000F933F9305910F3F11F0C7DFFBCF3F91C6
:1001A0000F9108953F93302FE8940027345610F0B4
:1001B0000395FCCF3C59002321F068940063B5DF20
:1001C00000273A5010F00395FCCF365F002309F466
:1001D00019F468940063A9DF032F0063A6DF3F9141
:1001E00008953F93302F30E2A0DF3A95E1F73F9139
:1001F00008951F93569A5E9810EF4BDF4ADF56988A
:1002000016E447DF68944E9BE89410EF42DF1F919D
:1002100008951F9310F411E001C018E7569A39DFD2
:1002200056981CE336DF1F9108958F9380E0079561
:10023000F0DF83958830D9F78F9108951F9311E0EF
:10024000569A27DF569815E024DFE8944E99689473
:1002500012E31FDF08940EF088941F9108958F9386
:1002600080E0ECDF079583958830D9F78F9108956A
:100270004F935F936F934F9358E06091000146272F
:1002800047954091000110F468E146274795409357
:1002900000014F9146954F935A9579F74F916F9181
:1002A0005F914F9108950F9300E0009300010F912B
:1002B000089500910001089554656D706572617430
:1002C00075726520FF004572726F72FFF89468ECDA
:1002D00072E022E015E010E10FEF1EBF0DBFECDE73
:1002E000F2E0E8EB55DF00270091B000036C0093CB
:1002F000B0000091B10001600093B1000091B30023
:10030000072F0093B30002EC04BD02E005BD08EC2A
:1003100007BD00916E00026000936E00579A509ADC
:1003200006E008B900E20BB9789414E621E00E94D7
:1003300030004D99FACF000006E034DF5ADFF6F3C3
:1003400003E373DFB0DF8BDF003069F191DFC1E0E1
:10035000D1E0099387E083DF8BDF09938A95D9F792
:10036000A8DF003001F5F2E0E6EC12DF08EAD9DEA2
:1003700088E0C1E0D1E0099115DF8A95E1F7739536
:100380007C3F58F48091B300872F8093B300000026
:1003900014E121E00E943000C8CF71E01FE021E0AD
:1003A0000E943000C2CFF2E0E6ECF2DEBECF2F9327
:1003B0006A95613040F0671718F426E028B904C048
:0C03C00020E028B901C068EC2F911895CE
:00000001FF
