:020000020000FC
:040000000C94370025
:040040000C947C00A0
:1000600054656D706572617475726520FF00F89457
:1000700068EC72E022E015E010E10FEF1EBF0DBF4B
:1000800076D0F0E0E0E6DFD000270091B000036C0E
:100090000093B0000091B10001600093B1000091A5
:1000A000B300072F0093B30002EC04BD02E005BDCE
:1000B00008EC07BD00916E00026000936E00509A3C
:1000C00006E008B900E40BB978944E99FECF000021
:1000D00073957C3F58F48091B300872F8093B300D1
:1000E000000014E121E00E948B00EFCF71E01FE0DF
:1000F00021E00E948B00E9CF2F936A95613040F098
:10010000671718F426E028B904C020E028B901C018
:1001100068EC2F9118953F934F935F936F93322F15
:10012000412F50E1232F142F69EF000000006A9542
:10013000E9F71A95C9F72A95B1F75A9599F76F918A
:100140005F914F913F9108954F935F93412F50E1FD
:10015000142F00000000000000000000000000005C
:100160001A95B9F75A95A1F75F914F9108950F939A
:100170002F931F93089A099A0C9A0D9A0E9A0F9A28
:10018000109811981DE221E0C6DF119A149A159A71
:100190001698179800000000119815E021E0BBDFC9
:1001A00022E0119A11E0D0DF119814E1CDDF2A95F9
:1001B000C1F7119A149811E0C7DF11981AE0C4DF53
:1001C00008E20AD006E008D00FE006D0109A2BD043
:1001D0001F912F910F910895109802D0109A0895B1
:1001E000119A149815981698179807FD179A06FDF6
:1001F000169A05FD159A04FD149A00001198000046
:100200000000119A149815981698179803FD179ADC
:1002100002FD169A01FD159A00FD149A000011982E
:1002200015E092DF08950F9301E0D6DF04EB8CDF39
:100230000F9108950F931F9302E0CEDF14EB84DF3C
:100240001F910F9108950F933F9305910F3F11F068
:10025000C7DFFBCF3F910F9108950F933F93302F4E
:10026000E8940027345610F00395FCCF3C59002346
:1002700021F068940063B4DF00273A5010F0039532
:10028000FCCF365F002309F419F468940063A8DFFB
:10029000032F0063A5DF3F910F9108953F93302F07
:0C02A00030E29EDF3A95E1F73F910895AF
:00000001FF
